{
  "contractName": "IdentityManagement",
  "abi": [
    {
      "anonymous": false,
      "inputs": [
        {
          "indexed": true,
          "internalType": "address",
          "name": "patient",
          "type": "address"
        },
        {
          "indexed": false,
          "internalType": "string",
          "name": "documentName",
          "type": "string"
        },
        {
          "indexed": false,
          "internalType": "string",
          "name": "ipfsHash",
          "type": "string"
        }
      ],
      "name": "DocumentAdded",
      "type": "event"
    },
    {
      "constant": true,
      "inputs": [
        {
          "internalType": "uint256",
          "name": "",
          "type": "uint256"
        }
      ],
      "name": "allDocuments",
      "outputs": [
        {
          "internalType": "string",
          "name": "documentName",
          "type": "string"
        },
        {
          "internalType": "string",
          "name": "documentType",
          "type": "string"
        },
        {
          "internalType": "string",
          "name": "ipfsHash",
          "type": "string"
        },
        {
          "internalType": "address",
          "name": "holder",
          "type": "address"
        },
        {
          "internalType": "address",
          "name": "doctorAddress",
          "type": "address"
        },
        {
          "internalType": "address",
          "name": "hospitalAddress",
          "type": "address"
        }
      ],
      "payable": false,
      "stateMutability": "view",
      "type": "function"
    },
    {
      "constant": true,
      "inputs": [
        {
          "internalType": "uint256",
          "name": "",
          "type": "uint256"
        }
      ],
      "name": "doctorAddresses",
      "outputs": [
        {
          "internalType": "address",
          "name": "",
          "type": "address"
        }
      ],
      "payable": false,
      "stateMutability": "view",
      "type": "function"
    },
    {
      "constant": true,
      "inputs": [
        {
          "internalType": "address",
          "name": "",
          "type": "address"
        }
      ],
      "name": "doctors",
      "outputs": [
        {
          "internalType": "address",
          "name": "id",
          "type": "address"
        },
        {
          "internalType": "string",
          "name": "name",
          "type": "string"
        },
        {
          "internalType": "uint256",
          "name": "age",
          "type": "uint256"
        },
        {
          "internalType": "enum IdentityManagement.Sex",
          "name": "sex",
          "type": "uint8"
        },
        {
          "internalType": "string",
          "name": "specialization",
          "type": "string"
        },
        {
          "internalType": "uint256",
          "name": "yearsOfExperience",
          "type": "uint256"
        },
        {
          "internalType": "address",
          "name": "hospital",
          "type": "address"
        },
        {
          "internalType": "bool",
          "name": "isVerified",
          "type": "bool"
        }
      ],
      "payable": false,
      "stateMutability": "view",
      "type": "function"
    },
    {
      "constant": true,
      "inputs": [
        {
          "internalType": "uint256",
          "name": "",
          "type": "uint256"
        }
      ],
      "name": "hospitalAddresses",
      "outputs": [
        {
          "internalType": "address",
          "name": "",
          "type": "address"
        }
      ],
      "payable": false,
      "stateMutability": "view",
      "type": "function"
    },
    {
      "constant": true,
      "inputs": [
        {
          "internalType": "address",
          "name": "",
          "type": "address"
        }
      ],
      "name": "hospitals",
      "outputs": [
        {
          "internalType": "address",
          "name": "id",
          "type": "address"
        },
        {
          "internalType": "string",
          "name": "name",
          "type": "string"
        },
        {
          "internalType": "string",
          "name": "location",
          "type": "string"
        },
        {
          "internalType": "uint256",
          "name": "rooms",
          "type": "uint256"
        },
        {
          "internalType": "uint256",
          "name": "noOfBeds",
          "type": "uint256"
        },
        {
          "internalType": "string",
          "name": "specialization",
          "type": "string"
        },
        {
          "internalType": "bool",
          "name": "isOpdAvailable",
          "type": "bool"
        },
        {
          "internalType": "bool",
          "name": "isVerified",
          "type": "bool"
        }
      ],
      "payable": false,
      "stateMutability": "view",
      "type": "function"
    },
    {
      "constant": true,
      "inputs": [
        {
          "internalType": "address",
          "name": "",
          "type": "address"
        }
      ],
      "name": "patients",
      "outputs": [
        {
          "internalType": "address",
          "name": "id",
          "type": "address"
        },
        {
          "internalType": "string",
          "name": "name",
          "type": "string"
        },
        {
          "internalType": "uint256",
          "name": "age",
          "type": "uint256"
        },
        {
          "internalType": "enum IdentityManagement.Sex",
          "name": "sex",
          "type": "uint8"
        },
        {
          "internalType": "string",
          "name": "phone",
          "type": "string"
        },
        {
          "internalType": "address",
          "name": "doctorAssigned",
          "type": "address"
        }
      ],
      "payable": false,
      "stateMutability": "view",
      "type": "function"
    },
    {
      "constant": false,
      "inputs": [
        {
          "internalType": "string",
          "name": "_name",
          "type": "string"
        }
      ],
      "name": "registerHospital",
      "outputs": [],
      "payable": false,
      "stateMutability": "nonpayable",
      "type": "function"
    },
    {
      "constant": false,
      "inputs": [
        {
          "internalType": "string",
          "name": "_name",
          "type": "string"
        },
        {
          "internalType": "uint256",
          "name": "_age",
          "type": "uint256"
        },
        {
          "internalType": "enum IdentityManagement.Sex",
          "name": "_sex",
          "type": "uint8"
        },
        {
          "internalType": "string",
          "name": "_specialization",
          "type": "string"
        },
        {
          "internalType": "uint256",
          "name": "_yearsOfExperience",
          "type": "uint256"
        }
      ],
      "name": "registerDoctor",
      "outputs": [],
      "payable": false,
      "stateMutability": "nonpayable",
      "type": "function"
    },
    {
      "constant": false,
      "inputs": [
        {
          "internalType": "address",
          "name": "_doctorAddress",
          "type": "address"
        }
      ],
      "name": "approveDoctor",
      "outputs": [],
      "payable": false,
      "stateMutability": "nonpayable",
      "type": "function"
    },
    {
      "constant": false,
      "inputs": [
        {
          "internalType": "address",
          "name": "_hospitalAddress",
          "type": "address"
        }
      ],
      "name": "associateDoctor",
      "outputs": [],
      "payable": false,
      "stateMutability": "nonpayable",
      "type": "function"
    },
    {
      "constant": true,
      "inputs": [],
      "name": "getAllHospitals",
      "outputs": [
        {
          "components": [
            {
              "internalType": "address",
              "name": "id",
              "type": "address"
            },
            {
              "internalType": "string",
              "name": "name",
              "type": "string"
            },
            {
              "internalType": "string",
              "name": "location",
              "type": "string"
            },
            {
              "internalType": "uint256",
              "name": "rooms",
              "type": "uint256"
            },
            {
              "internalType": "uint256",
              "name": "noOfBeds",
              "type": "uint256"
            },
            {
              "internalType": "string",
              "name": "specialization",
              "type": "string"
            },
            {
              "internalType": "address[]",
              "name": "doctors",
              "type": "address[]"
            },
            {
              "internalType": "address[]",
              "name": "pendingDoctors",
              "type": "address[]"
            },
            {
              "internalType": "address[]",
              "name": "patients",
              "type": "address[]"
            },
            {
              "internalType": "bool",
              "name": "isOpdAvailable",
              "type": "bool"
            },
            {
              "internalType": "bool",
              "name": "isVerified",
              "type": "bool"
            }
          ],
          "internalType": "struct IdentityManagement.Hospital[]",
          "name": "",
          "type": "tuple[]"
        }
      ],
      "payable": false,
      "stateMutability": "view",
      "type": "function"
    },
    {
      "constant": true,
      "inputs": [],
      "name": "getAllDoctors",
      "outputs": [
        {
          "components": [
            {
              "internalType": "address",
              "name": "id",
              "type": "address"
            },
            {
              "internalType": "string",
              "name": "name",
              "type": "string"
            },
            {
              "internalType": "uint256",
              "name": "age",
              "type": "uint256"
            },
            {
              "internalType": "enum IdentityManagement.Sex",
              "name": "sex",
              "type": "uint8"
            },
            {
              "internalType": "string",
              "name": "specialization",
              "type": "string"
            },
            {
              "internalType": "uint256",
              "name": "yearsOfExperience",
              "type": "uint256"
            },
            {
              "internalType": "address[]",
              "name": "patients",
              "type": "address[]"
            },
            {
              "internalType": "address",
              "name": "hospital",
              "type": "address"
            },
            {
              "internalType": "bool",
              "name": "isVerified",
              "type": "bool"
            }
          ],
          "internalType": "struct IdentityManagement.Doctor[]",
          "name": "",
          "type": "tuple[]"
        }
      ],
      "payable": false,
      "stateMutability": "view",
      "type": "function"
    },
    {
      "constant": true,
      "inputs": [
        {
          "internalType": "address",
          "name": "_address",
          "type": "address"
        }
      ],
      "name": "getHospital",
      "outputs": [
        {
          "internalType": "address",
          "name": "",
          "type": "address"
        },
        {
          "internalType": "string",
          "name": "",
          "type": "string"
        },
        {
          "internalType": "address[]",
          "name": "",
          "type": "address[]"
        },
        {
          "internalType": "address[]",
          "name": "",
          "type": "address[]"
        },
        {
          "internalType": "address[]",
          "name": "",
          "type": "address[]"
        },
        {
          "internalType": "string",
          "name": "",
          "type": "string"
        },
        {
          "internalType": "bool",
          "name": "",
          "type": "bool"
        }
      ],
      "payable": false,
      "stateMutability": "view",
      "type": "function"
    },
    {
      "constant": true,
      "inputs": [
        {
          "internalType": "address",
          "name": "_address",
          "type": "address"
        }
      ],
      "name": "getDoctor",
      "outputs": [
        {
          "internalType": "address",
          "name": "",
          "type": "address"
        },
        {
          "internalType": "string",
          "name": "",
          "type": "string"
        },
        {
          "internalType": "uint256",
          "name": "",
          "type": "uint256"
        },
        {
          "internalType": "enum IdentityManagement.Sex",
          "name": "",
          "type": "uint8"
        },
        {
          "internalType": "string",
          "name": "",
          "type": "string"
        },
        {
          "internalType": "uint256",
          "name": "",
          "type": "uint256"
        },
        {
          "internalType": "address[]",
          "name": "",
          "type": "address[]"
        },
        {
          "internalType": "address",
          "name": "",
          "type": "address"
        },
        {
          "internalType": "bool",
          "name": "",
          "type": "bool"
        }
      ],
      "payable": false,
      "stateMutability": "view",
      "type": "function"
    },
    {
      "constant": false,
      "inputs": [
        {
          "internalType": "string",
          "name": "_name",
          "type": "string"
        },
        {
          "internalType": "uint256",
          "name": "_age",
          "type": "uint256"
        },
        {
          "internalType": "enum IdentityManagement.Sex",
          "name": "_sex",
          "type": "uint8"
        },
        {
          "internalType": "string",
          "name": "_phone",
          "type": "string"
        }
      ],
      "name": "registerPatient",
      "outputs": [],
      "payable": false,
      "stateMutability": "nonpayable",
      "type": "function"
    },
    {
      "constant": false,
      "inputs": [
        {
          "internalType": "string",
          "name": "_documentName",
          "type": "string"
        },
        {
          "internalType": "string",
          "name": "_documentType",
          "type": "string"
        },
        {
          "internalType": "string",
          "name": "_ipfsHash",
          "type": "string"
        },
        {
          "internalType": "address",
          "name": "_doctorAddress",
          "type": "address"
        },
        {
          "internalType": "address",
          "name": "_hospitalAddress",
          "type": "address"
        }
      ],
      "name": "addDocument",
      "outputs": [],
      "payable": false,
      "stateMutability": "nonpayable",
      "type": "function"
    },
    {
      "constant": true,
      "inputs": [
        {
          "internalType": "address",
          "name": "_address",
          "type": "address"
        }
      ],
      "name": "getPatient",
      "outputs": [
        {
          "components": [
            {
              "internalType": "address",
              "name": "id",
              "type": "address"
            },
            {
              "internalType": "string",
              "name": "name",
              "type": "string"
            },
            {
              "internalType": "uint256",
              "name": "age",
              "type": "uint256"
            },
            {
              "internalType": "enum IdentityManagement.Sex",
              "name": "sex",
              "type": "uint8"
            },
            {
              "internalType": "string",
              "name": "phone",
              "type": "string"
            },
            {
              "internalType": "address",
              "name": "doctorAssigned",
              "type": "address"
            },
            {
              "components": [
                {
                  "internalType": "string",
                  "name": "documentName",
                  "type": "string"
                },
                {
                  "internalType": "string",
                  "name": "documentType",
                  "type": "string"
                },
                {
                  "internalType": "string",
                  "name": "ipfsHash",
                  "type": "string"
                },
                {
                  "internalType": "address",
                  "name": "holder",
                  "type": "address"
                },
                {
                  "internalType": "address",
                  "name": "doctorAddress",
                  "type": "address"
                },
                {
                  "internalType": "address",
                  "name": "hospitalAddress",
                  "type": "address"
                }
              ],
              "internalType": "struct IdentityManagement.Document[]",
              "name": "documents",
              "type": "tuple[]"
            }
          ],
          "internalType": "struct IdentityManagement.Patient",
          "name": "",
          "type": "tuple"
        }
      ],
      "payable": false,
      "stateMutability": "view",
      "type": "function"
    },
    {
      "constant": true,
      "inputs": [
        {
          "internalType": "address",
          "name": "_address",
          "type": "address"
        }
      ],
      "name": "getDocuments",
      "outputs": [
        {
          "components": [
            {
              "internalType": "string",
              "name": "documentName",
              "type": "string"
            },
            {
              "internalType": "string",
              "name": "documentType",
              "type": "string"
            },
            {
              "internalType": "string",
              "name": "ipfsHash",
              "type": "string"
            },
            {
              "internalType": "address",
              "name": "holder",
              "type": "address"
            },
            {
              "internalType": "address",
              "name": "doctorAddress",
              "type": "address"
            },
            {
              "internalType": "address",
              "name": "hospitalAddress",
              "type": "address"
            }
          ],
          "internalType": "struct IdentityManagement.Document[]",
          "name": "",
          "type": "tuple[]"
        }
      ],
      "payable": false,
      "stateMutability": "view",
      "type": "function"
    },
    {
      "constant": true,
      "inputs": [
        {
          "internalType": "address",
          "name": "_patientId",
          "type": "address"
        }
      ],
      "name": "getPatientDocuments",
      "outputs": [
        {
          "components": [
            {
              "internalType": "string",
              "name": "documentName",
              "type": "string"
            },
            {
              "internalType": "string",
              "name": "documentType",
              "type": "string"
            },
            {
              "internalType": "string",
              "name": "ipfsHash",
              "type": "string"
            },
            {
              "internalType": "address",
              "name": "holder",
              "type": "address"
            },
            {
              "internalType": "address",
              "name": "doctorAddress",
              "type": "address"
            },
            {
              "internalType": "address",
              "name": "hospitalAddress",
              "type": "address"
            }
          ],
          "internalType": "struct IdentityManagement.Document[]",
          "name": "",
          "type": "tuple[]"
        }
      ],
      "payable": false,
      "stateMutability": "view",
      "type": "function"
    },
    {
      "constant": true,
      "inputs": [],
      "name": "getAllTheDocuments",
      "outputs": [
        {
          "components": [
            {
              "internalType": "string",
              "name": "documentName",
              "type": "string"
            },
            {
              "internalType": "string",
              "name": "documentType",
              "type": "string"
            },
            {
              "internalType": "string",
              "name": "ipfsHash",
              "type": "string"
            },
            {
              "internalType": "address",
              "name": "holder",
              "type": "address"
            },
            {
              "internalType": "address",
              "name": "doctorAddress",
              "type": "address"
            },
            {
              "internalType": "address",
              "name": "hospitalAddress",
              "type": "address"
            }
          ],
          "internalType": "struct IdentityManagement.Document[]",
          "name": "",
          "type": "tuple[]"
        }
      ],
      "payable": false,
      "stateMutability": "view",
      "type": "function"
    },
    {
      "constant": true,
      "inputs": [
        {
          "internalType": "address",
          "name": "_hospitalAddress",
          "type": "address"
        }
      ],
      "name": "getDocumentsByHospital",
      "outputs": [
        {
          "components": [
            {
              "internalType": "string",
              "name": "documentName",
              "type": "string"
            },
            {
              "internalType": "string",
              "name": "documentType",
              "type": "string"
            },
            {
              "internalType": "string",
              "name": "ipfsHash",
              "type": "string"
            },
            {
              "internalType": "address",
              "name": "holder",
              "type": "address"
            },
            {
              "internalType": "address",
              "name": "doctorAddress",
              "type": "address"
            },
            {
              "internalType": "address",
              "name": "hospitalAddress",
              "type": "address"
            }
          ],
          "internalType": "struct IdentityManagement.Document[]",
          "name": "",
          "type": "tuple[]"
        }
      ],
      "payable": false,
      "stateMutability": "view",
      "type": "function"
    }
  ],
  "bytecode": "0x608060405234801561001057600080fd5b506158b980620000216000396000f3fe608060405234801561001057600080fd5b50600436106101375760003560e01c80638b20b4ab116100b8578063c49b09b51161007c578063c49b09b514610398578063cdee934e146103ce578063d9ad230014610403578063f093cf8014610433578063f0d950901461046a578063f99fb8671461048857610137565b80638b20b4ab146102c95780638f85b98a146102e5578063a6fa9a7314610315578063a9583c2214610331578063b5368e201461036857610137565b80633e9660ea116100ff5780633e9660ea146102395780634e9f715414610255578063602614ba146102735780636160a5c2146102915780636f556b22146102ad57610137565b80630869cfbc1461013c57806327f50a2d146101715780632f04e064146101a157806330b83b78146101d95780633ba51e7c14610209575b600080fd5b61015660048036036101519190810190614564565b6104a4565b604051610168969594939291906152cb565b60405180910390f35b61018b60048036036101869190810190614564565b61065d565b60405161019891906153e8565b60405180910390f35b6101bb60048036036101b69190810190614564565b6109e6565b6040516101d099989796959493929190615196565b60405180910390f35b6101f360048036036101ee9190810190614564565b610c9d565b60405161020091906153e8565b60405180910390f35b610223600480360361021e91908101906147c7565b61114e565b60405161023091906150e9565b60405180910390f35b610253600480360361024e9190810190614564565b61118a565b005b61025d611384565b60405161026a919061540a565b60405180910390f35b61027b6118b9565b60405161028891906153e8565b60405180910390f35b6102ab60048036036102a69190810190614564565b611c00565b005b6102c760048036036102c291908101906145ce565b612009565b005b6102e360048036036102de919081019061458d565b6123d6565b005b6102ff60048036036102fa9190810190614564565b6125cb565b60405161030c91906153e8565b60405180910390f35b61032f600480360361032a919081019061468d565b612954565b005b61034b60048036036103469190810190614564565b612b12565b60405161035f98979695949392919061533a565b60405180910390f35b610382600480360361037d9190810190614564565b612ce4565b60405161038f9190615562565b60405180910390f35b6103b260048036036103ad9190810190614564565b6132ab565b6040516103c59796959493929190615104565b60405180910390f35b6103e860048036036103e391908101906147c7565b61362d565b6040516103fa9695949392919061542c565b60405180910390f35b61041d600480360361041891908101906147c7565b61389e565b60405161042a91906150e9565b60405180910390f35b61044d60048036036104489190810190614564565b6138da565b604051610461989796959493929190615238565b60405180910390f35b610472613b24565b60405161047f91906153c6565b60405180910390f35b6104a2600480360361049d9190810190614720565b613f04565b005b60026020528060005260406000206000915090508060000160009054906101000a900473ffffffffffffffffffffffffffffffffffffffff1690806001018054600181600116156101000203166002900480601f0160208091040260200160405190810160405280929190818152602001828054600181600116156101000203166002900480156105765780601f1061054b57610100808354040283529160200191610576565b820191906000526020600020905b81548152906001019060200180831161055957829003601f168201915b5050505050908060020154908060030160009054906101000a900460ff1690806004018054600181600116156101000203166002900480601f01602080910402602001604051908101604052809291908181526020018280546001816001161561010002031660029004801561062d5780601f106106025761010080835404028352916020019161062d565b820191906000526020600020905b81548152906001019060200180831161061057829003601f168201915b5050505050908060050160009054906101000a900473ffffffffffffffffffffffffffffffffffffffff16905086565b6060600260008373ffffffffffffffffffffffffffffffffffffffff1673ffffffffffffffffffffffffffffffffffffffff168152602001908152602001600020600601805480602002602001604051908101604052809291908181526020016000905b828210156109db57838290600052602060002090600602016040518060c0016040529081600082018054600181600116156101000203166002900480601f01602080910402602001604051908101604052809291908181526020018280546001816001161561010002031660029004801561077d5780601f106107525761010080835404028352916020019161077d565b820191906000526020600020905b81548152906001019060200180831161076057829003601f168201915b50505050508152602001600182018054600181600116156101000203166002900480601f01602080910402602001604051908101604052809291908181526020018280546001816001161561010002031660029004801561081f5780601f106107f45761010080835404028352916020019161081f565b820191906000526020600020905b81548152906001019060200180831161080257829003601f168201915b50505050508152602001600282018054600181600116156101000203166002900480601f0160208091040260200160405190810160405280929190818152602001828054600181600116156101000203166002900480156108c15780601f10610896576101008083540402835291602001916108c1565b820191906000526020600020905b8154815290600101906020018083116108a457829003601f168201915b505050505081526020016003820160009054906101000a900473ffffffffffffffffffffffffffffffffffffffff1673ffffffffffffffffffffffffffffffffffffffff1673ffffffffffffffffffffffffffffffffffffffff1681526020016004820160009054906101000a900473ffffffffffffffffffffffffffffffffffffffff1673ffffffffffffffffffffffffffffffffffffffff1673ffffffffffffffffffffffffffffffffffffffff1681526020016005820160009054906101000a900473ffffffffffffffffffffffffffffffffffffffff1673ffffffffffffffffffffffffffffffffffffffff1673ffffffffffffffffffffffffffffffffffffffff1681525050815260200190600101906106c1565b505050509050919050565b600060606000806060600060606000806000600160008c73ffffffffffffffffffffffffffffffffffffffff1673ffffffffffffffffffffffffffffffffffffffff16815260200190815260200160002090508060000160009054906101000a900473ffffffffffffffffffffffffffffffffffffffff168160010182600201548360030160009054906101000a900460ff16846004018560050154866006018760070160009054906101000a900473ffffffffffffffffffffffffffffffffffffffff168860070160149054906101000a900460ff16878054600181600116156101000203166002900480601f016020809104026020016040519081016040528092919081815260200182805460018160011615610100020316600290048015610b525780601f10610b2757610100808354040283529160200191610b52565b820191906000526020600020905b815481529060010190602001808311610b3557829003601f168201915b50505050509750848054600181600116156101000203166002900480601f016020809104026020016040519081016040528092919081815260200182805460018160011615610100020316600290048015610bee5780601f10610bc357610100808354040283529160200191610bee565b820191906000526020600020905b815481529060010190602001808311610bd157829003601f168201915b5050505050945082805480602002602001604051908101604052809291908181526020018280548015610c7657602002820191906000526020600020905b8160009054906101000a900473ffffffffffffffffffffffffffffffffffffffff1673ffffffffffffffffffffffffffffffffffffffff1681526020019060010190808311610c2c575b50505050509250995099509950995099509950995099509950509193959799909294969850565b6060600080905060008090505b600580549050811015610d3f578373ffffffffffffffffffffffffffffffffffffffff1660058281548110610cdb57fe5b906000526020600020906006020160050160009054906101000a900473ffffffffffffffffffffffffffffffffffffffff1673ffffffffffffffffffffffffffffffffffffffff161415610d325781806001019250505b8080600101915050610caa565b50606081604051908082528060200260200182016040528015610d7c57816020015b610d6961414f565b815260200190600190039081610d615790505b5090506000915060008090505b600580549050811015611143578473ffffffffffffffffffffffffffffffffffffffff1660058281548110610dba57fe5b906000526020600020906006020160050160009054906101000a900473ffffffffffffffffffffffffffffffffffffffff1673ffffffffffffffffffffffffffffffffffffffff1614156111365760058181548110610e1557fe5b90600052602060002090600602016040518060c0016040529081600082018054600181600116156101000203166002900480601f016020809104026020016040519081016040528092919081815260200182805460018160011615610100020316600290048015610ec75780601f10610e9c57610100808354040283529160200191610ec7565b820191906000526020600020905b815481529060010190602001808311610eaa57829003601f168201915b50505050508152602001600182018054600181600116156101000203166002900480601f016020809104026020016040519081016040528092919081815260200182805460018160011615610100020316600290048015610f695780601f10610f3e57610100808354040283529160200191610f69565b820191906000526020600020905b815481529060010190602001808311610f4c57829003601f168201915b50505050508152602001600282018054600181600116156101000203166002900480601f01602080910402602001604051908101604052809291908181526020018280546001816001161561010002031660029004801561100b5780601f10610fe05761010080835404028352916020019161100b565b820191906000526020600020905b815481529060010190602001808311610fee57829003601f168201915b505050505081526020016003820160009054906101000a900473ffffffffffffffffffffffffffffffffffffffff1673ffffffffffffffffffffffffffffffffffffffff1673ffffffffffffffffffffffffffffffffffffffff1681526020016004820160009054906101000a900473ffffffffffffffffffffffffffffffffffffffff1673ffffffffffffffffffffffffffffffffffffffff1673ffffffffffffffffffffffffffffffffffffffff1681526020016005820160009054906101000a900473ffffffffffffffffffffffffffffffffffffffff1673ffffffffffffffffffffffffffffffffffffffff1673ffffffffffffffffffffffffffffffffffffffff168152505082848151811061112257fe5b602002602001018190525082806001019350505b8080600101915050610d89565b508092505050919050565b6004818154811061115b57fe5b906000526020600020016000915054906101000a900473ffffffffffffffffffffffffffffffffffffffff1681565b600073ffffffffffffffffffffffffffffffffffffffff16600160003373ffffffffffffffffffffffffffffffffffffffff1673ffffffffffffffffffffffffffffffffffffffff16815260200190815260200160002060070160009054906101000a900473ffffffffffffffffffffffffffffffffffffffff1673ffffffffffffffffffffffffffffffffffffffff161461125b576040517f08c379a0000000000000000000000000000000000000000000000000000000008152600401611252906154e2565b60405180910390fd5b6000808273ffffffffffffffffffffffffffffffffffffffff1673ffffffffffffffffffffffffffffffffffffffff1681526020019081526020016000206007013390806001815401808255809150509060018203906000526020600020016000909192909190916101000a81548173ffffffffffffffffffffffffffffffffffffffff021916908373ffffffffffffffffffffffffffffffffffffffff1602179055505080600160003373ffffffffffffffffffffffffffffffffffffffff1673ffffffffffffffffffffffffffffffffffffffff16815260200190815260200160002060070160006101000a81548173ffffffffffffffffffffffffffffffffffffffff021916908373ffffffffffffffffffffffffffffffffffffffff16021790555050565b6060806003805490506040519080825280602002602001820160405280156113c657816020015b6113b36141c7565b8152602001906001900390816113ab5790505b50905060008090505b6003805490508110156118b157600080600383815481106113ec57fe5b9060005260206000200160009054906101000a900473ffffffffffffffffffffffffffffffffffffffff1673ffffffffffffffffffffffffffffffffffffffff1673ffffffffffffffffffffffffffffffffffffffff168152602001908152602001600020604051806101600160405290816000820160009054906101000a900473ffffffffffffffffffffffffffffffffffffffff1673ffffffffffffffffffffffffffffffffffffffff1673ffffffffffffffffffffffffffffffffffffffff168152602001600182018054600181600116156101000203166002900480601f01602080910402602001604051908101604052809291908181526020018280546001816001161561010002031660029004801561154c5780601f106115215761010080835404028352916020019161154c565b820191906000526020600020905b81548152906001019060200180831161152f57829003601f168201915b50505050508152602001600282018054600181600116156101000203166002900480601f0160208091040260200160405190810160405280929190818152602001828054600181600116156101000203166002900480156115ee5780601f106115c3576101008083540402835291602001916115ee565b820191906000526020600020905b8154815290600101906020018083116115d157829003601f168201915b505050505081526020016003820154815260200160048201548152602001600582018054600181600116156101000203166002900480601f0160208091040260200160405190810160405280929190818152602001828054600181600116156101000203166002900480156116a45780601f10611679576101008083540402835291602001916116a4565b820191906000526020600020905b81548152906001019060200180831161168757829003601f168201915b505050505081526020016006820180548060200260200160405190810160405280929190818152602001828054801561173257602002820191906000526020600020905b8160009054906101000a900473ffffffffffffffffffffffffffffffffffffffff1673ffffffffffffffffffffffffffffffffffffffff16815260200190600101908083116116e8575b50505050508152602001600782018054806020026020016040519081016040528092919081815260200182805480156117c057602002820191906000526020600020905b8160009054906101000a900473ffffffffffffffffffffffffffffffffffffffff1673ffffffffffffffffffffffffffffffffffffffff1681526020019060010190808311611776575b505050505081526020016008820180548060200260200160405190810160405280929190818152602001828054801561184e57602002820191906000526020600020905b8160009054906101000a900473ffffffffffffffffffffffffffffffffffffffff1673ffffffffffffffffffffffffffffffffffffffff1681526020019060010190808311611804575b505050505081526020016009820160009054906101000a900460ff161515151581526020016009820160019054906101000a900460ff16151515158152505082828151811061189957fe5b602002602001018190525080806001019150506113cf565b508091505090565b60606005805480602002602001604051908101604052809291908181526020016000905b82821015611bf757838290600052602060002090600602016040518060c0016040529081600082018054600181600116156101000203166002900480601f0160208091040260200160405190810160405280929190818152602001828054600181600116156101000203166002900480156119995780601f1061196e57610100808354040283529160200191611999565b820191906000526020600020905b81548152906001019060200180831161197c57829003601f168201915b50505050508152602001600182018054600181600116156101000203166002900480601f016020809104026020016040519081016040528092919081815260200182805460018160011615610100020316600290048015611a3b5780601f10611a1057610100808354040283529160200191611a3b565b820191906000526020600020905b815481529060010190602001808311611a1e57829003601f168201915b50505050508152602001600282018054600181600116156101000203166002900480601f016020809104026020016040519081016040528092919081815260200182805460018160011615610100020316600290048015611add5780601f10611ab257610100808354040283529160200191611add565b820191906000526020600020905b815481529060010190602001808311611ac057829003601f168201915b505050505081526020016003820160009054906101000a900473ffffffffffffffffffffffffffffffffffffffff1673ffffffffffffffffffffffffffffffffffffffff1673ffffffffffffffffffffffffffffffffffffffff1681526020016004820160009054906101000a900473ffffffffffffffffffffffffffffffffffffffff1673ffffffffffffffffffffffffffffffffffffffff1673ffffffffffffffffffffffffffffffffffffffff1681526020016005820160009054906101000a900473ffffffffffffffffffffffffffffffffffffffff1673ffffffffffffffffffffffffffffffffffffffff1673ffffffffffffffffffffffffffffffffffffffff1681525050815260200190600101906118dd565b50505050905090565b600073ffffffffffffffffffffffffffffffffffffffff166000803373ffffffffffffffffffffffffffffffffffffffff1673ffffffffffffffffffffffffffffffffffffffff16815260200190815260200160002060000160009054906101000a900473ffffffffffffffffffffffffffffffffffffffff1673ffffffffffffffffffffffffffffffffffffffff161415611cd1576040517f08c379a0000000000000000000000000000000000000000000000000000000008152600401611cc890615502565b60405180910390fd5b600160008273ffffffffffffffffffffffffffffffffffffffff1673ffffffffffffffffffffffffffffffffffffffff16815260200190815260200160002060070160149054906101000a900460ff1615611d61576040517f08c379a0000000000000000000000000000000000000000000000000000000008152600401611d58906154a2565b60405180910390fd5b60008060003373ffffffffffffffffffffffffffffffffffffffff1673ffffffffffffffffffffffffffffffffffffffff168152602001908152602001600020600701905060008090505b8180549050811015611f05578273ffffffffffffffffffffffffffffffffffffffff16828281548110611ddb57fe5b9060005260206000200160009054906101000a900473ffffffffffffffffffffffffffffffffffffffff1673ffffffffffffffffffffffffffffffffffffffff161415611ef85781600183805490500381548110611e3557fe5b9060005260206000200160009054906101000a900473ffffffffffffffffffffffffffffffffffffffff16828281548110611e6c57fe5b9060005260206000200160006101000a81548173ffffffffffffffffffffffffffffffffffffffff021916908373ffffffffffffffffffffffffffffffffffffffff16021790555081805480611ebe57fe5b6001900381819060005260206000200160006101000a81549073ffffffffffffffffffffffffffffffffffffffff02191690559055611f05565b8080600101915050611dac565b5060018060008473ffffffffffffffffffffffffffffffffffffffff1673ffffffffffffffffffffffffffffffffffffffff16815260200190815260200160002060070160146101000a81548160ff0219169083151502179055506000803373ffffffffffffffffffffffffffffffffffffffff1673ffffffffffffffffffffffffffffffffffffffff1681526020019081526020016000206006018290806001815401808255809150509060018203906000526020600020016000909192909190916101000a81548173ffffffffffffffffffffffffffffffffffffffff021916908373ffffffffffffffffffffffffffffffffffffffff160217905550505050565b61201161423b565b85816000018190525084816020018190525083816040018190525033816060019073ffffffffffffffffffffffffffffffffffffffff16908173ffffffffffffffffffffffffffffffffffffffff168152505082816080019073ffffffffffffffffffffffffffffffffffffffff16908173ffffffffffffffffffffffffffffffffffffffff1681525050818160a0019073ffffffffffffffffffffffffffffffffffffffff16908173ffffffffffffffffffffffffffffffffffffffff1681525050600260003373ffffffffffffffffffffffffffffffffffffffff1673ffffffffffffffffffffffffffffffffffffffff1681526020019081526020016000206006018190806001815401808255809150509060018203906000526020600020906006020160009091929091909150600082015181600001908051906020019061215e9291906142b3565b50602082015181600101908051906020019061217b9291906142b3565b5060408201518160020190805190602001906121989291906142b3565b5060608201518160030160006101000a81548173ffffffffffffffffffffffffffffffffffffffff021916908373ffffffffffffffffffffffffffffffffffffffff16021790555060808201518160040160006101000a81548173ffffffffffffffffffffffffffffffffffffffff021916908373ffffffffffffffffffffffffffffffffffffffff16021790555060a08201518160050160006101000a81548173ffffffffffffffffffffffffffffffffffffffff021916908373ffffffffffffffffffffffffffffffffffffffff1602179055505050506005819080600181540180825580915050906001820390600052602060002090600602016000909192909190915060008201518160000190805190602001906122bb9291906142b3565b5060208201518160010190805190602001906122d89291906142b3565b5060408201518160020190805190602001906122f59291906142b3565b5060608201518160030160006101000a81548173ffffffffffffffffffffffffffffffffffffffff021916908373ffffffffffffffffffffffffffffffffffffffff16021790555060808201518160040160006101000a81548173ffffffffffffffffffffffffffffffffffffffff021916908373ffffffffffffffffffffffffffffffffffffffff16021790555060a08201518160050160006101000a81548173ffffffffffffffffffffffffffffffffffffffff021916908373ffffffffffffffffffffffffffffffffffffffff160217905550505050505050505050565b600073ffffffffffffffffffffffffffffffffffffffff166000803373ffffffffffffffffffffffffffffffffffffffff1673ffffffffffffffffffffffffffffffffffffffff16815260200190815260200160002060000160009054906101000a900473ffffffffffffffffffffffffffffffffffffffff1673ffffffffffffffffffffffffffffffffffffffff16146124a6576040517f08c379a000000000000000000000000000000000000000000000000000000000815260040161249d906154c2565b60405180910390fd5b60008060003373ffffffffffffffffffffffffffffffffffffffff1673ffffffffffffffffffffffffffffffffffffffff168152602001908152602001600020905081816001019080519060200190612500929190614333565b50338160000160006101000a81548173ffffffffffffffffffffffffffffffffffffffff021916908373ffffffffffffffffffffffffffffffffffffffff16021790555060008160090160016101000a81548160ff02191690831515021790555060033390806001815401808255809150509060018203906000526020600020016000909192909190916101000a81548173ffffffffffffffffffffffffffffffffffffffff021916908373ffffffffffffffffffffffffffffffffffffffff160217905550505050565b6060600260008373ffffffffffffffffffffffffffffffffffffffff1673ffffffffffffffffffffffffffffffffffffffff168152602001908152602001600020600601805480602002602001604051908101604052809291908181526020016000905b8282101561294957838290600052602060002090600602016040518060c0016040529081600082018054600181600116156101000203166002900480601f0160208091040260200160405190810160405280929190818152602001828054600181600116156101000203166002900480156126eb5780601f106126c0576101008083540402835291602001916126eb565b820191906000526020600020905b8154815290600101906020018083116126ce57829003601f168201915b50505050508152602001600182018054600181600116156101000203166002900480601f01602080910402602001604051908101604052809291908181526020018280546001816001161561010002031660029004801561278d5780601f106127625761010080835404028352916020019161278d565b820191906000526020600020905b81548152906001019060200180831161277057829003601f168201915b50505050508152602001600282018054600181600116156101000203166002900480601f01602080910402602001604051908101604052809291908181526020018280546001816001161561010002031660029004801561282f5780601f106128045761010080835404028352916020019161282f565b820191906000526020600020905b81548152906001019060200180831161281257829003601f168201915b505050505081526020016003820160009054906101000a900473ffffffffffffffffffffffffffffffffffffffff1673ffffffffffffffffffffffffffffffffffffffff1673ffffffffffffffffffffffffffffffffffffffff1681526020016004820160009054906101000a900473ffffffffffffffffffffffffffffffffffffffff1673ffffffffffffffffffffffffffffffffffffffff1673ffffffffffffffffffffffffffffffffffffffff1681526020016005820160009054906101000a900473ffffffffffffffffffffffffffffffffffffffff1673ffffffffffffffffffffffffffffffffffffffff1673ffffffffffffffffffffffffffffffffffffffff16815250508152602001906001019061262f565b505050509050919050565b600073ffffffffffffffffffffffffffffffffffffffff16600260003373ffffffffffffffffffffffffffffffffffffffff1673ffffffffffffffffffffffffffffffffffffffff16815260200190815260200160002060000160009054906101000a900473ffffffffffffffffffffffffffffffffffffffff1673ffffffffffffffffffffffffffffffffffffffff1614612a25576040517f08c379a0000000000000000000000000000000000000000000000000000000008152600401612a1c90615522565b60405180910390fd5b6000600260003373ffffffffffffffffffffffffffffffffffffffff1673ffffffffffffffffffffffffffffffffffffffff1681526020019081526020016000209050338160000160006101000a81548173ffffffffffffffffffffffffffffffffffffffff021916908373ffffffffffffffffffffffffffffffffffffffff16021790555084816001019080519060200190612ac3929190614333565b50838160020181905550828160030160006101000a81548160ff02191690836001811115612aed57fe5b021790555081816004019080519060200190612b0a929190614333565b505050505050565b60016020528060005260406000206000915090508060000160009054906101000a900473ffffffffffffffffffffffffffffffffffffffff1690806001018054600181600116156101000203166002900480601f016020809104026020016040519081016040528092919081815260200182805460018160011615610100020316600290048015612be45780601f10612bb957610100808354040283529160200191612be4565b820191906000526020600020905b815481529060010190602001808311612bc757829003601f168201915b5050505050908060020154908060030160009054906101000a900460ff1690806004018054600181600116156101000203166002900480601f016020809104026020016040519081016040528092919081815260200182805460018160011615610100020316600290048015612c9b5780601f10612c7057610100808354040283529160200191612c9b565b820191906000526020600020905b815481529060010190602001808311612c7e57829003601f168201915b5050505050908060050154908060070160009054906101000a900473ffffffffffffffffffffffffffffffffffffffff16908060070160149054906101000a900460ff16905088565b612cec6143b3565b600260008373ffffffffffffffffffffffffffffffffffffffff1673ffffffffffffffffffffffffffffffffffffffff1681526020019081526020016000206040518060e00160405290816000820160009054906101000a900473ffffffffffffffffffffffffffffffffffffffff1673ffffffffffffffffffffffffffffffffffffffff1673ffffffffffffffffffffffffffffffffffffffff168152602001600182018054600181600116156101000203166002900480601f016020809104026020016040519081016040528092919081815260200182805460018160011615610100020316600290048015612e255780601f10612dfa57610100808354040283529160200191612e25565b820191906000526020600020905b815481529060010190602001808311612e0857829003601f168201915b50505050508152602001600282015481526020016003820160009054906101000a900460ff166001811115612e5657fe5b6001811115612e6157fe5b8152602001600482018054600181600116156101000203166002900480601f016020809104026020016040519081016040528092919081815260200182805460018160011615610100020316600290048015612efe5780601f10612ed357610100808354040283529160200191612efe565b820191906000526020600020905b815481529060010190602001808311612ee157829003601f168201915b505050505081526020016005820160009054906101000a900473ffffffffffffffffffffffffffffffffffffffff1673ffffffffffffffffffffffffffffffffffffffff1673ffffffffffffffffffffffffffffffffffffffff16815260200160068201805480602002602001604051908101604052809291908181526020016000905b8282101561329c57838290600052602060002090600602016040518060c0016040529081600082018054600181600116156101000203166002900480601f01602080910402602001604051908101604052809291908181526020018280546001816001161561010002031660029004801561303e5780601f106130135761010080835404028352916020019161303e565b820191906000526020600020905b81548152906001019060200180831161302157829003601f168201915b50505050508152602001600182018054600181600116156101000203166002900480601f0160208091040260200160405190810160405280929190818152602001828054600181600116156101000203166002900480156130e05780601f106130b5576101008083540402835291602001916130e0565b820191906000526020600020905b8154815290600101906020018083116130c357829003601f168201915b50505050508152602001600282018054600181600116156101000203166002900480601f0160208091040260200160405190810160405280929190818152602001828054600181600116156101000203166002900480156131825780601f1061315757610100808354040283529160200191613182565b820191906000526020600020905b81548152906001019060200180831161316557829003601f168201915b505050505081526020016003820160009054906101000a900473ffffffffffffffffffffffffffffffffffffffff1673ffffffffffffffffffffffffffffffffffffffff1673ffffffffffffffffffffffffffffffffffffffff1681526020016004820160009054906101000a900473ffffffffffffffffffffffffffffffffffffffff1673ffffffffffffffffffffffffffffffffffffffff1673ffffffffffffffffffffffffffffffffffffffff1681526020016005820160009054906101000a900473ffffffffffffffffffffffffffffffffffffffff1673ffffffffffffffffffffffffffffffffffffffff1673ffffffffffffffffffffffffffffffffffffffff168152505081526020019060010190612f82565b50505050815250509050919050565b600060608060608060606000806000808a73ffffffffffffffffffffffffffffffffffffffff1673ffffffffffffffffffffffffffffffffffffffff16815260200190815260200160002090508060000160009054906101000a900473ffffffffffffffffffffffffffffffffffffffff1681600101826006018360070184600801856005018660090160019054906101000a900460ff16858054600181600116156101000203166002900480601f0160208091040260200160405190810160405280929190818152602001828054600181600116156101000203166002900480156133d85780601f106133ad576101008083540402835291602001916133d8565b820191906000526020600020905b8154815290600101906020018083116133bb57829003601f168201915b505050505095508480548060200260200160405190810160405280929190818152602001828054801561346057602002820191906000526020600020905b8160009054906101000a900473ffffffffffffffffffffffffffffffffffffffff1673ffffffffffffffffffffffffffffffffffffffff1681526020019060010190808311613416575b50505050509450838054806020026020016040519081016040528092919081815260200182805480156134e857602002820191906000526020600020905b8160009054906101000a900473ffffffffffffffffffffffffffffffffffffffff1673ffffffffffffffffffffffffffffffffffffffff168152602001906001019080831161349e575b505050505093508280548060200260200160405190810160405280929190818152602001828054801561357057602002820191906000526020600020905b8160009054906101000a900473ffffffffffffffffffffffffffffffffffffffff1673ffffffffffffffffffffffffffffffffffffffff1681526020019060010190808311613526575b50505050509250818054600181600116156101000203166002900480601f01602080910402602001604051908101604052809291908181526020018280546001816001161561010002031660029004801561360c5780601f106135e15761010080835404028352916020019161360c565b820191906000526020600020905b8154815290600101906020018083116135ef57829003601f168201915b50505050509150975097509750975097509750975050919395979092949650565b6005818154811061363a57fe5b9060005260206000209060060201600091509050806000018054600181600116156101000203166002900480601f0160208091040260200160405190810160405280929190818152602001828054600181600116156101000203166002900480156136e65780601f106136bb576101008083540402835291602001916136e6565b820191906000526020600020905b8154815290600101906020018083116136c957829003601f168201915b505050505090806001018054600181600116156101000203166002900480601f0160208091040260200160405190810160405280929190818152602001828054600181600116156101000203166002900480156137845780601f1061375957610100808354040283529160200191613784565b820191906000526020600020905b81548152906001019060200180831161376757829003601f168201915b505050505090806002018054600181600116156101000203166002900480601f0160208091040260200160405190810160405280929190818152602001828054600181600116156101000203166002900480156138225780601f106137f757610100808354040283529160200191613822565b820191906000526020600020905b81548152906001019060200180831161380557829003601f168201915b5050505050908060030160009054906101000a900473ffffffffffffffffffffffffffffffffffffffff16908060040160009054906101000a900473ffffffffffffffffffffffffffffffffffffffff16908060050160009054906101000a900473ffffffffffffffffffffffffffffffffffffffff16905086565b600381815481106138ab57fe5b906000526020600020016000915054906101000a900473ffffffffffffffffffffffffffffffffffffffff1681565b60006020528060005260406000206000915090508060000160009054906101000a900473ffffffffffffffffffffffffffffffffffffffff1690806001018054600181600116156101000203166002900480601f0160208091040260200160405190810160405280929190818152602001828054600181600116156101000203166002900480156139ac5780601f10613981576101008083540402835291602001916139ac565b820191906000526020600020905b81548152906001019060200180831161398f57829003601f168201915b505050505090806002018054600181600116156101000203166002900480601f016020809104026020016040519081016040528092919081815260200182805460018160011615610100020316600290048015613a4a5780601f10613a1f57610100808354040283529160200191613a4a565b820191906000526020600020905b815481529060010190602001808311613a2d57829003601f168201915b505050505090806003015490806004015490806005018054600181600116156101000203166002900480601f016020809104026020016040519081016040528092919081815260200182805460018160011615610100020316600290048015613af45780601f10613ac957610100808354040283529160200191613af4565b820191906000526020600020905b815481529060010190602001808311613ad757829003601f168201915b5050505050908060090160009054906101000a900460ff16908060090160019054906101000a900460ff16905088565b606080600480549050604051908082528060200260200182016040528015613b6657816020015b613b53614427565b815260200190600190039081613b4b5790505b50905060008090505b600480549050811015613efc576001600060048381548110613b8d57fe5b9060005260206000200160009054906101000a900473ffffffffffffffffffffffffffffffffffffffff1673ffffffffffffffffffffffffffffffffffffffff1673ffffffffffffffffffffffffffffffffffffffff168152602001908152602001600020604051806101200160405290816000820160009054906101000a900473ffffffffffffffffffffffffffffffffffffffff1673ffffffffffffffffffffffffffffffffffffffff1673ffffffffffffffffffffffffffffffffffffffff168152602001600182018054600181600116156101000203166002900480601f016020809104026020016040519081016040528092919081815260200182805460018160011615610100020316600290048015613ced5780601f10613cc257610100808354040283529160200191613ced565b820191906000526020600020905b815481529060010190602001808311613cd057829003601f168201915b50505050508152602001600282015481526020016003820160009054906101000a900460ff166001811115613d1e57fe5b6001811115613d2957fe5b8152602001600482018054600181600116156101000203166002900480601f016020809104026020016040519081016040528092919081815260200182805460018160011615610100020316600290048015613dc65780601f10613d9b57610100808354040283529160200191613dc6565b820191906000526020600020905b815481529060010190602001808311613da957829003601f168201915b505050505081526020016005820154815260200160068201805480602002602001604051908101604052809291908181526020018280548015613e5e57602002820191906000526020600020905b8160009054906101000a900473ffffffffffffffffffffffffffffffffffffffff1673ffffffffffffffffffffffffffffffffffffffff1681526020019060010190808311613e14575b505050505081526020016007820160009054906101000a900473ffffffffffffffffffffffffffffffffffffffff1673ffffffffffffffffffffffffffffffffffffffff1673ffffffffffffffffffffffffffffffffffffffff1681526020016007820160149054906101000a900460ff161515151581525050828281518110613ee457fe5b60200260200101819052508080600101915050613b6f565b508091505090565b600073ffffffffffffffffffffffffffffffffffffffff16600160003373ffffffffffffffffffffffffffffffffffffffff1673ffffffffffffffffffffffffffffffffffffffff16815260200190815260200160002060000160009054906101000a900473ffffffffffffffffffffffffffffffffffffffff1673ffffffffffffffffffffffffffffffffffffffff1614613fd5576040517f08c379a0000000000000000000000000000000000000000000000000000000008152600401613fcc90615542565b60405180910390fd5b6000600160003373ffffffffffffffffffffffffffffffffffffffff1673ffffffffffffffffffffffffffffffffffffffff1681526020019081526020016000209050338160000160006101000a81548173ffffffffffffffffffffffffffffffffffffffff021916908373ffffffffffffffffffffffffffffffffffffffff16021790555085816001019080519060200190614073929190614333565b50848160020181905550838160030160006101000a81548160ff0219169083600181111561409d57fe5b0217905550828160040190805190602001906140ba929190614333565b5081816005018190555060008160070160146101000a81548160ff02191690831515021790555060043390806001815401808255809150509060018203906000526020600020016000909192909190916101000a81548173ffffffffffffffffffffffffffffffffffffffff021916908373ffffffffffffffffffffffffffffffffffffffff16021790555050505050505050565b6040518060c00160405280606081526020016060815260200160608152602001600073ffffffffffffffffffffffffffffffffffffffff168152602001600073ffffffffffffffffffffffffffffffffffffffff168152602001600073ffffffffffffffffffffffffffffffffffffffff1681525090565b604051806101600160405280600073ffffffffffffffffffffffffffffffffffffffff16815260200160608152602001606081526020016000815260200160008152602001606081526020016060815260200160608152602001606081526020016000151581526020016000151581525090565b6040518060c00160405280606081526020016060815260200160608152602001600073ffffffffffffffffffffffffffffffffffffffff168152602001600073ffffffffffffffffffffffffffffffffffffffff168152602001600073ffffffffffffffffffffffffffffffffffffffff1681525090565b828054600181600116156101000203166002900490600052602060002090601f016020900481019282601f106142f457805160ff1916838001178555614322565b82800160010185558215614322579182015b82811115614321578251825591602001919060010190614306565b5b50905061432f91906144ac565b5090565b828054600181600116156101000203166002900490600052602060002090601f016020900481019282601f1061437457805160ff19168380011785556143a2565b828001600101855582156143a2579182015b828111156143a1578251825591602001919060010190614386565b5b5090506143af91906144ac565b5090565b6040518060e00160405280600073ffffffffffffffffffffffffffffffffffffffff1681526020016060815260200160008152602001600060018111156143f657fe5b815260200160608152602001600073ffffffffffffffffffffffffffffffffffffffff168152602001606081525090565b604051806101200160405280600073ffffffffffffffffffffffffffffffffffffffff16815260200160608152602001600081526020016000600181111561446b57fe5b8152602001606081526020016000815260200160608152602001600073ffffffffffffffffffffffffffffffffffffffff1681526020016000151581525090565b6144ce91905b808211156144ca5760008160009055506001016144b2565b5090565b90565b6000813590506144e081615838565b92915050565b6000813590506144f58161584f565b92915050565b600082601f83011261450c57600080fd5b813561451f61451a826155b1565b615584565b9150808252602083016020830185838301111561453b57600080fd5b6145468382846157d8565b50505092915050565b60008135905061455e8161585f565b92915050565b60006020828403121561457657600080fd5b6000614584848285016144d1565b91505092915050565b60006020828403121561459f57600080fd5b600082013567ffffffffffffffff8111156145b957600080fd5b6145c5848285016144fb565b91505092915050565b600080600080600060a086880312156145e657600080fd5b600086013567ffffffffffffffff81111561460057600080fd5b61460c888289016144fb565b955050602086013567ffffffffffffffff81111561462957600080fd5b614635888289016144fb565b945050604086013567ffffffffffffffff81111561465257600080fd5b61465e888289016144fb565b935050606061466f888289016144d1565b9250506080614680888289016144d1565b9150509295509295909350565b600080600080608085870312156146a357600080fd5b600085013567ffffffffffffffff8111156146bd57600080fd5b6146c9878288016144fb565b94505060206146da8782880161454f565b93505060406146eb878288016144e6565b925050606085013567ffffffffffffffff81111561470857600080fd5b614714878288016144fb565b91505092959194509250565b600080600080600060a0868803121561473857600080fd5b600086013567ffffffffffffffff81111561475257600080fd5b61475e888289016144fb565b955050602061476f8882890161454f565b9450506040614780888289016144e6565b935050606086013567ffffffffffffffff81111561479d57600080fd5b6147a9888289016144fb565b92505060806147ba8882890161454f565b9150509295509295909350565b6000602082840312156147d957600080fd5b60006147e78482850161454f565b91505092915050565b60006147fc8383614844565b60208301905092915050565b60006148148383614da5565b905092915050565b60006148288383614e78565b905092915050565b600061483c8383614f0f565b905092915050565b61484d8161576b565b82525050565b61485c8161576b565b82525050565b600061486d82615648565b61487781856156f4565b9350614882836155ed565b8060005b838110156148b357815161489a88826147f0565b97506148a5836156a2565b925050600181019050614886565b5085935050505092915050565b60006148cb8261563d565b6148d581856156e3565b93506148e0836155dd565b8060005b838110156149115781516148f888826147f0565b975061490383615695565b9250506001810190506148e4565b5085935050505092915050565b600061492982615653565b6149338185615705565b935083602082028501614945856155fd565b8060005b8581101561498157848403895281516149628582614808565b945061496d836156af565b925060208a01995050600181019050614949565b50829750879550505050505092915050565b600061499e82615669565b6149a88185615727565b9350836020820285016149ba8561561d565b8060005b858110156149f657848403895281516149d7858261481c565b94506149e2836156c9565b925060208a019950506001810190506149be565b50829750879550505050505092915050565b6000614a138261565e565b614a1d8185615716565b935083602082028501614a2f8561560d565b8060005b85811015614a6b5784840389528151614a4c858261481c565b9450614a57836156bc565b925060208a01995050600181019050614a33565b50829750879550505050505092915050565b6000614a8882615674565b614a928185615738565b935083602082028501614aa48561562d565b8060005b85811015614ae05784840389528151614ac18582614830565b9450614acc836156d6565b925060208a01995050600181019050614aa8565b50829750879550505050505092915050565b614afb8161577d565b82525050565b614b0a8161577d565b82525050565b614b19816157c6565b82525050565b614b28816157c6565b82525050565b6000614b398261568a565b614b43818561575a565b9350614b538185602086016157e7565b614b5c8161581a565b840191505092915050565b6000614b728261567f565b614b7c8185615749565b9350614b8c8185602086016157e7565b614b958161581a565b840191505092915050565b6000614bab8261567f565b614bb5818561575a565b9350614bc58185602086016157e7565b614bce8161581a565b840191505092915050565b6000614be6601b8361575a565b91507f446f63746f7220697320616c72656164792076657269666965642100000000006000830152602082019050919050565b6000614c2660188361575a565b91507f486f73706974616c20616c7265616479206578697374732100000000000000006000830152602082019050919050565b6000614c66602d8361575a565b91507f446f63746f7220697320616c7265616479206173736f6369617465642077697460008301527f68206120686f73706974616c21000000000000000000000000000000000000006020830152604082019050919050565b6000614ccc60238361575a565b91507f4f6e6c7920686f73706974616c732063616e20617070726f766520646f63746f60008301527f72732100000000000000000000000000000000000000000000000000000000006020830152604082019050919050565b6000614d3260178361575a565b91507f50617469656e7420616c726561647920657869737473210000000000000000006000830152602082019050919050565b6000614d7260168361575a565b91507f646f63746f7220616c72656164792065786973747321000000000000000000006000830152602082019050919050565b600061012083016000830151614dbe6000860182614844565b5060208301518482036020860152614dd68282614b67565b9150506040830151614deb60408601826150cb565b506060830151614dfe6060860182614b10565b5060808301518482036080860152614e168282614b67565b91505060a0830151614e2b60a08601826150cb565b5060c083015184820360c0860152614e4382826148c0565b91505060e0830151614e5860e0860182614844565b50610100830151614e6d610100860182614af2565b508091505092915050565b600060c0830160008301518482036000860152614e958282614b67565b91505060208301518482036020860152614eaf8282614b67565b91505060408301518482036040860152614ec98282614b67565b9150506060830151614ede6060860182614844565b506080830151614ef16080860182614844565b5060a0830151614f0460a0860182614844565b508091505092915050565b600061016083016000830151614f286000860182614844565b5060208301518482036020860152614f408282614b67565b91505060408301518482036040860152614f5a8282614b67565b9150506060830151614f6f60608601826150cb565b506080830151614f8260808601826150cb565b5060a083015184820360a0860152614f9a8282614b67565b91505060c083015184820360c0860152614fb482826148c0565b91505060e083015184820360e0860152614fce82826148c0565b915050610100830151848203610100860152614fea82826148c0565b915050610120830151615001610120860182614af2565b50610140830151615016610140860182614af2565b508091505092915050565b600060e0830160008301516150396000860182614844565b50602083015184820360208601526150518282614b67565b915050604083015161506660408601826150cb565b5060608301516150796060860182614b10565b50608083015184820360808601526150918282614b67565b91505060a08301516150a660a0860182614844565b5060c083015184820360c08601526150be8282614a08565b9150508091505092915050565b6150d4816157bc565b82525050565b6150e3816157bc565b82525050565b60006020820190506150fe6000830184614853565b92915050565b600060e082019050615119600083018a614853565b818103602083015261512b8189614b2e565b9050818103604083015261513f8188614862565b905081810360608301526151538187614862565b905081810360808301526151678186614862565b905081810360a083015261517b8185614b2e565b905061518a60c0830184614b01565b98975050505050505050565b6000610120820190506151ac600083018c614853565b81810360208301526151be818b614b2e565b90506151cd604083018a6150da565b6151da6060830189614b1f565b81810360808301526151ec8188614b2e565b90506151fb60a08301876150da565b81810360c083015261520d8186614862565b905061521c60e0830185614853565b61522a610100830184614b01565b9a9950505050505050505050565b60006101008201905061524e600083018b614853565b8181036020830152615260818a614ba0565b905081810360408301526152748189614ba0565b905061528360608301886150da565b61529060808301876150da565b81810360a08301526152a28186614ba0565b90506152b160c0830185614b01565b6152be60e0830184614b01565b9998505050505050505050565b600060c0820190506152e06000830189614853565b81810360208301526152f28188614ba0565b905061530160408301876150da565b61530e6060830186614b1f565b81810360808301526153208185614ba0565b905061532f60a0830184614853565b979650505050505050565b600061010082019050615350600083018b614853565b8181036020830152615362818a614ba0565b905061537160408301896150da565b61537e6060830188614b1f565b81810360808301526153908187614ba0565b905061539f60a08301866150da565b6153ac60c0830185614853565b6153b960e0830184614b01565b9998505050505050505050565b600060208201905081810360008301526153e0818461491e565b905092915050565b600060208201905081810360008301526154028184614993565b905092915050565b600060208201905081810360008301526154248184614a7d565b905092915050565b600060c08201905081810360008301526154468189614ba0565b9050818103602083015261545a8188614ba0565b9050818103604083015261546e8187614ba0565b905061547d6060830186614853565b61548a6080830185614853565b61549760a0830184614853565b979650505050505050565b600060208201905081810360008301526154bb81614bd9565b9050919050565b600060208201905081810360008301526154db81614c19565b9050919050565b600060208201905081810360008301526154fb81614c59565b9050919050565b6000602082019050818103600083015261551b81614cbf565b9050919050565b6000602082019050818103600083015261553b81614d25565b9050919050565b6000602082019050818103600083015261555b81614d65565b9050919050565b6000602082019050818103600083015261557c8184615021565b905092915050565b6000604051905081810181811067ffffffffffffffff821117156155a757600080fd5b8060405250919050565b600067ffffffffffffffff8211156155c857600080fd5b601f19601f8301169050602081019050919050565b6000819050602082019050919050565b6000819050602082019050919050565b6000819050602082019050919050565b6000819050602082019050919050565b6000819050602082019050919050565b6000819050602082019050919050565b600081519050919050565b600081519050919050565b600081519050919050565b600081519050919050565b600081519050919050565b600081519050919050565b600081519050919050565b600081519050919050565b6000602082019050919050565b6000602082019050919050565b6000602082019050919050565b6000602082019050919050565b6000602082019050919050565b6000602082019050919050565b600082825260208201905092915050565b600082825260208201905092915050565b600082825260208201905092915050565b600082825260208201905092915050565b600082825260208201905092915050565b600082825260208201905092915050565b600082825260208201905092915050565b600082825260208201905092915050565b60006157768261579c565b9050919050565b60008115159050919050565b60008190506157978261582b565b919050565b600073ffffffffffffffffffffffffffffffffffffffff82169050919050565b6000819050919050565b60006157d182615789565b9050919050565b82818337600083830152505050565b60005b838110156158055780820151818401526020810190506157ea565b83811115615814576000848401525b50505050565b6000601f19601f8301169050919050565b6002811061583557fe5b50565b6158418161576b565b811461584c57600080fd5b50565b6002811061585c57600080fd5b50565b615868816157bc565b811461587357600080fd5b5056fea365627a7a723158202f9513b2ffbdc59b41eb2ddcc2d3e3b09eb94317cdad74015ba19190d2c8d05e6c6578706572696d656e74616cf564736f6c63430005100040",
  "source": "// SPDX-License-Identifier: MIT\r\npragma solidity >=0.4.22 <0.9.0;\r\npragma experimental ABIEncoderV2;\r\n\r\ncontract IdentityManagement {\r\n    enum UserType {\r\n        Hospital,\r\n        Doctor,\r\n        Patient\r\n    }\r\n    enum Sex {\r\n        Male,\r\n        Female\r\n    }\r\n\r\n    struct Hospital {\r\n        address id;\r\n        string name;\r\n        string location;\r\n        uint rooms;\r\n        uint noOfBeds;\r\n        string specialization;\r\n        address[] doctors;\r\n        address[] pendingDoctors;\r\n        address[] patients;\r\n        bool isOpdAvailable;\r\n        bool isVerified;\r\n    }\r\n\r\n    struct Doctor {\r\n        address id;\r\n        string name;\r\n        uint age;\r\n        Sex sex;\r\n        string specialization;\r\n        uint yearsOfExperience;\r\n        address[] patients;\r\n        address hospital;\r\n        bool isVerified;\r\n    }\r\n\r\n    struct Patient {\r\n        address id;\r\n        string name;\r\n        uint age;\r\n        Sex sex;\r\n        string phone;\r\n        address doctorAssigned;\r\n        Document[] documents;\r\n    }\r\n\r\n    struct Document {\r\n        string documentName;\r\n        string documentType; // Add this for the type\r\n        string ipfsHash;\r\n        address holder; // Patient's address\r\n        address doctorAddress; // Add this for doctor's address\r\n        address hospitalAddress; // Add this for hospital's address\r\n    }\r\n\r\n    mapping(address => Hospital) public hospitals;\r\n    mapping(address => Doctor) public doctors;\r\n    mapping(address => Patient) public patients;\r\n    address[] public hospitalAddresses;\r\n    address[] public doctorAddresses;\r\n    Document[] public allDocuments;\r\n\r\n    function registerHospital(string memory _name) public {\r\n        require(\r\n            hospitals[msg.sender].id == address(0),\r\n            \"Hospital already exists!\"\r\n        );\r\n\r\n        Hospital storage hospital = hospitals[msg.sender];\r\n        hospital.name = _name;\r\n        hospital.id = msg.sender;\r\n        hospital.isVerified = false;\r\n        hospitalAddresses.push(msg.sender); // Add the new hospital to the list\r\n    }\r\n\r\n    function registerDoctor(\r\n        string memory _name,\r\n        uint _age,\r\n        Sex _sex,\r\n        string memory _specialization,\r\n        uint _yearsOfExperience\r\n    ) public {\r\n        require(doctors[msg.sender].id == address(0), \"doctor already exists!\");\r\n\r\n        Doctor storage doctor = doctors[msg.sender];\r\n        doctor.id = msg.sender;\r\n        doctor.name = _name;\r\n        doctor.age = _age;\r\n        doctor.sex = _sex;\r\n        doctor.specialization = _specialization;\r\n        doctor.yearsOfExperience = _yearsOfExperience;\r\n        doctor.isVerified = false;\r\n        doctorAddresses.push(msg.sender);\r\n    }\r\n\r\n    function approveDoctor(address _doctorAddress) public {\r\n        require(\r\n            hospitals[msg.sender].id != address(0),\r\n            \"Only hospitals can approve doctors!\"\r\n        );\r\n        require(\r\n            !doctors[_doctorAddress].isVerified,\r\n            \"Doctor is already verified!\"\r\n        );\r\n\r\n        // Remove doctor from the pending list\r\n        address[] storage pendingDoctors = hospitals[msg.sender].pendingDoctors;\r\n        for (uint i = 0; i < pendingDoctors.length; i++) {\r\n            if (pendingDoctors[i] == _doctorAddress) {\r\n                pendingDoctors[i] = pendingDoctors[pendingDoctors.length - 1];\r\n                pendingDoctors.pop();\r\n                break;\r\n            }\r\n        }\r\n\r\n        // Add doctor to the approved list\r\n        doctors[_doctorAddress].isVerified = true;\r\n        hospitals[msg.sender].doctors.push(_doctorAddress);\r\n    }\r\n\r\n    function associateDoctor(address _hospitalAddress) public {\r\n        require(\r\n            doctors[msg.sender].hospital == address(0),\r\n            \"Doctor is already associated with a hospital!\"\r\n        );\r\n\r\n        hospitals[_hospitalAddress].pendingDoctors.push(msg.sender);\r\n        doctors[msg.sender].hospital = _hospitalAddress;\r\n    }\r\n\r\n    function getAllHospitals() public view returns (Hospital[] memory) {\r\n        Hospital[] memory hospitalList = new Hospital[](\r\n            hospitalAddresses.length\r\n        );\r\n        for (uint i = 0; i < hospitalAddresses.length; i++) {\r\n            hospitalList[i] = hospitals[hospitalAddresses[i]];\r\n        }\r\n        return hospitalList;\r\n    }\r\n\r\n    function getAllDoctors() public view returns (Doctor[] memory) {\r\n        Doctor[] memory doctorList = new Doctor[](doctorAddresses.length);\r\n        for (uint i = 0; i < doctorAddresses.length; i++) {\r\n            doctorList[i] = doctors[doctorAddresses[i]];\r\n        }\r\n        return doctorList;\r\n    }\r\n\r\n    function getHospital(\r\n        address _address\r\n    )\r\n        public\r\n        view\r\n        returns (\r\n            address,\r\n            string memory,\r\n            address[] memory,\r\n            address[] memory,\r\n            address[] memory,\r\n            string memory,\r\n            bool\r\n        )\r\n    {\r\n        Hospital storage hospital = hospitals[_address];\r\n        return (\r\n            hospital.id,\r\n            hospital.name,\r\n            hospital.doctors,\r\n            hospital.pendingDoctors,\r\n            hospital.patients,\r\n            hospital.specialization,\r\n            hospital.isVerified\r\n        );\r\n    }\r\n\r\n    function getDoctor(\r\n        address _address\r\n    )\r\n        public\r\n        view\r\n        returns (\r\n            address,\r\n            string memory,\r\n            uint,\r\n            Sex,\r\n            string memory,\r\n            uint,\r\n            address[] memory,\r\n            address,\r\n            bool\r\n        )\r\n    {\r\n        Doctor storage doctor = doctors[_address];\r\n        return (\r\n            doctor.id,\r\n            doctor.name,\r\n            doctor.age,\r\n            doctor.sex,\r\n            doctor.specialization,\r\n            doctor.yearsOfExperience,\r\n            doctor.patients,\r\n            doctor.hospital,\r\n            doctor.isVerified\r\n        );\r\n    }\r\n\r\n    function registerPatient(\r\n        string memory _name,\r\n        uint _age,\r\n        Sex _sex,\r\n        string memory _phone\r\n    ) public {\r\n        require(\r\n            patients[msg.sender].id == address(0),\r\n            \"Patient already exists!\"\r\n        );\r\n\r\n        Patient storage patient = patients[msg.sender];\r\n        patient.id = msg.sender;\r\n        patient.name = _name;\r\n        patient.age = _age;\r\n        patient.sex = _sex;\r\n        patient.phone = _phone;\r\n    }\r\n\r\n    event DocumentAdded(address indexed patient, string documentName, string ipfsHash);\r\n\r\n\r\n    function addDocument(\r\n        string memory _documentName,\r\n        string memory _documentType,\r\n        string memory _ipfsHash,\r\n        address _doctorAddress,\r\n        address _hospitalAddress\r\n    ) public {\r\n        \r\n        Document memory newDoc;\r\n        newDoc.documentName = _documentName;\r\n        newDoc.documentType = _documentType;\r\n        newDoc.ipfsHash = _ipfsHash;\r\n        newDoc.holder = msg.sender;\r\n        newDoc.doctorAddress = _doctorAddress;\r\n        newDoc.hospitalAddress = _hospitalAddress;\r\n\r\n\r\n\r\n        patients[msg.sender].documents.push(newDoc);\r\n        allDocuments.push(newDoc); // Add document to the global list\r\n    }\r\n\r\n    function getPatient(address _address) public view returns (Patient memory) {\r\n        return patients[_address];\r\n    }\r\n\r\n    // for the current patient\r\n    function getDocuments(\r\n        address _address\r\n    ) public view returns (Document[] memory) {\r\n        return patients[_address].documents;\r\n    }\r\n\r\n    // for the patient with specific id\r\n    function getPatientDocuments(\r\n        address _patientId\r\n    ) public view returns (Document[] memory) {\r\n        return patients[_patientId].documents;\r\n    }\r\n\r\n    // for all documents\r\n    function getAllTheDocuments() public view returns (Document[] memory) {\r\n        return allDocuments;\r\n    }\r\n\r\n    // to get document for a specific hospital\r\n    function getDocumentsByHospital(\r\n        address _hospitalAddress\r\n    ) public view returns (Document[] memory) {\r\n        uint count = 0;\r\n\r\n        // Count documents for the specific hospital\r\n        for (uint i = 0; i < allDocuments.length; i++) {\r\n            if (allDocuments[i].hospitalAddress == _hospitalAddress) {\r\n                count++;\r\n            }\r\n        }\r\n\r\n        Document[] memory documents = new Document[](count);\r\n        count = 0;\r\n\r\n        // Populate the results\r\n        for (uint i = 0; i < allDocuments.length; i++) {\r\n            if (allDocuments[i].hospitalAddress == _hospitalAddress) {\r\n                documents[count] = allDocuments[i];\r\n                count++;\r\n            }\r\n        }\r\n\r\n        return documents;\r\n    }\r\n}\r\n",
  "sourcePath": "D:\\Shivva\\Decen\\myProject\\contracts\\IdentityManagement.sol",
  "compiler": {
    "name": "solc",
    "version": "0.5.16+commit.9c3226ce.Emscripten.clang"
  },
  "schemaVersion": "3.4.14",
  "updatedAt": "2023-08-12T14:51:23.458Z",
  "devdoc": {
    "methods": {}
  },
  "userdoc": {
    "methods": {}
  }
}